{
  "contractName": "Client",
  "abi": [
    {
      "inputs": [
        {
          "internalType": "uint256",
          "name": "_policyAmount",
          "type": "uint256"
        },
        {
          "internalType": "uint256",
          "name": "_policyPrice",
          "type": "uint256"
        },
        {
          "internalType": "uint256",
          "name": "_policyDuration",
          "type": "uint256"
        }
      ],
      "stateMutability": "nonpayable",
      "type": "constructor"
    },
    {
      "anonymous": false,
      "inputs": [
        {
          "indexed": false,
          "internalType": "address",
          "name": "policyHolder",
          "type": "address"
        },
        {
          "indexed": false,
          "internalType": "uint256",
          "name": "policyAmount",
          "type": "uint256"
        },
        {
          "indexed": false,
          "internalType": "uint256",
          "name": "payment",
          "type": "uint256"
        }
      ],
      "name": "PolicyClaimed",
      "type": "event"
    },
    {
      "anonymous": false,
      "inputs": [
        {
          "indexed": false,
          "internalType": "address",
          "name": "insuranceProvider",
          "type": "address"
        },
        {
          "indexed": false,
          "internalType": "uint256",
          "name": "policyAmount",
          "type": "uint256"
        },
        {
          "indexed": false,
          "internalType": "uint256",
          "name": "payment",
          "type": "uint256"
        }
      ],
      "name": "PolicyEnded",
      "type": "event"
    },
    {
      "inputs": [],
      "name": "insuranceProvider",
      "outputs": [
        {
          "internalType": "address payable",
          "name": "",
          "type": "address"
        }
      ],
      "stateMutability": "view",
      "type": "function",
      "constant": true
    },
    {
      "inputs": [],
      "name": "policyAmount",
      "outputs": [
        {
          "internalType": "uint256",
          "name": "",
          "type": "uint256"
        }
      ],
      "stateMutability": "view",
      "type": "function",
      "constant": true
    },
    {
      "inputs": [],
      "name": "policyEndTime",
      "outputs": [
        {
          "internalType": "uint256",
          "name": "",
          "type": "uint256"
        }
      ],
      "stateMutability": "view",
      "type": "function",
      "constant": true
    },
    {
      "inputs": [],
      "name": "policyHolder",
      "outputs": [
        {
          "internalType": "address payable",
          "name": "",
          "type": "address"
        }
      ],
      "stateMutability": "view",
      "type": "function",
      "constant": true
    },
    {
      "inputs": [],
      "name": "policyPrice",
      "outputs": [
        {
          "internalType": "uint256",
          "name": "",
          "type": "uint256"
        }
      ],
      "stateMutability": "view",
      "type": "function",
      "constant": true
    },
    {
      "inputs": [],
      "name": "initPolicy",
      "outputs": [],
      "stateMutability": "nonpayable",
      "type": "function"
    },
    {
      "inputs": [
        {
          "internalType": "uint256",
          "name": "amount",
          "type": "uint256"
        }
      ],
      "name": "makePayment",
      "outputs": [],
      "stateMutability": "nonpayable",
      "type": "function"
    },
    {
      "inputs": [
        {
          "internalType": "address",
          "name": "_onChainOracle",
          "type": "address"
        }
      ],
      "name": "setOracle",
      "outputs": [],
      "stateMutability": "nonpayable",
      "type": "function"
    },
    {
      "inputs": [
        {
          "internalType": "bool",
          "name": "_houseBurnedDown",
          "type": "bool"
        }
      ],
      "name": "setHouseBurnedDown",
      "outputs": [],
      "stateMutability": "nonpayable",
      "type": "function"
    },
    {
      "inputs": [],
      "name": "endPolicy",
      "outputs": [],
      "stateMutability": "nonpayable",
      "type": "function"
    },
    {
      "inputs": [],
      "name": "claimPolicy",
      "outputs": [],
      "stateMutability": "nonpayable",
      "type": "function"
    }
  ],
  "bytecode": "0x60806040526000600360016101000a81548160ff02191690831515021790555034801561002b57600080fd5b50604051610b5c380380610b5c8339818101604052606081101561004e57600080fd5b810190808051906020019092919080519060200190929190805190602001909291905050508260008190555081600181905550804201600281905550505050610ac08061009c6000396000f3fe608060405234801561001057600080fd5b50600436106100a95760003560e01c80639955f67c116100715780639955f67c1461017c5780639ea3ddbe146101b0578063a559dd2c146101ce578063d7e471b1146101d8578063f9dec43614610208578063feb8c31714610212576100a9565b806314a20bea146100ae57806319f107dc146100b85780635114cb52146100d65780637adbf9731461010457806381f8ac8e14610148575b600080fd5b6100b6610230565b005b6100c06104d7565b6040518082815260200191505060405180910390f35b610102600480360360208110156100ec57600080fd5b81019080803590602001909291905050506104dd565b005b6101466004803603602081101561011a57600080fd5b81019080803573ffffffffffffffffffffffffffffffffffffffff16906020019092919050505061052f565b005b610150610636565b604051808273ffffffffffffffffffffffffffffffffffffffff16815260200191505060405180910390f35b61018461065c565b604051808273ffffffffffffffffffffffffffffffffffffffff16815260200191505060405180910390f35b6101b8610682565b6040518082815260200191505060405180910390f35b6101d6610688565b005b610206600480360360208110156101ee57600080fd5b8101908080351515906020019092919050505061091b565b005b6102106109fb565b005b61021a610a3e565b6040518082815260200191505060405180910390f35b6002544211156102a8576040517f08c379a000000000000000000000000000000000000000000000000000000000815260040180806020018281038252600f8152602001807f506572696f6420657870697265642e000000000000000000000000000000000081525060200191505060405180910390fd5b600360009054906101000a900460ff161561032b576040517f08c379a00000000000000000000000000000000000000000000000000000000081526004018080602001828103825260198152602001807f506f6c6963792068617320616c726561647920656e6465642e0000000000000081525060200191505060405180910390fd5b600360019054906101000a900460ff166103ad576040517f08c379a00000000000000000000000000000000000000000000000000000000081526004018080602001828103825260188152602001807f486f757365206861736e2774206275726e656420646f776e000000000000000081525060200191505060405180910390fd5b6001600360006101000a81548160ff0219169083151502179055506001600360016101000a81548160ff0219169083151502179055507fed750b94c78c97aa2b3696061ef8e68e83866262d95283e35e178b024b4837cc600460009054906101000a900473ffffffffffffffffffffffffffffffffffffffff16600054600154604051808473ffffffffffffffffffffffffffffffffffffffff168152602001838152602001828152602001935050505060405180910390a1600460009054906101000a900473ffffffffffffffffffffffffffffffffffffffff1673ffffffffffffffffffffffffffffffffffffffff166108fc600054600154019081150290604051600060405180830381858888f193505050501580156104d4573d6000803e3d6000fd5b50565b60005481565b60015481146104eb57600080fd5b33600460006101000a81548173ffffffffffffffffffffffffffffffffffffffff021916908373ffffffffffffffffffffffffffffffffffffffff16021790555050565b600360029054906101000a900473ffffffffffffffffffffffffffffffffffffffff1673ffffffffffffffffffffffffffffffffffffffff163373ffffffffffffffffffffffffffffffffffffffff16146105f2576040517f08c379a000000000000000000000000000000000000000000000000000000000815260040180806020018281038252601e8152602001807f596f75206d6179206e6f742063686f6f736520746865206f7261636c652e000081525060200191505060405180910390fd5b80600560006101000a81548173ffffffffffffffffffffffffffffffffffffffff021916908373ffffffffffffffffffffffffffffffffffffffff16021790555050565b600460009054906101000a900473ffffffffffffffffffffffffffffffffffffffff1681565b600360029054906101000a900473ffffffffffffffffffffffffffffffffffffffff1681565b60015481565b600360029054906101000a900473ffffffffffffffffffffffffffffffffffffffff1673ffffffffffffffffffffffffffffffffffffffff163373ffffffffffffffffffffffffffffffffffffffff161461072e576040517f08c379a0000000000000000000000000000000000000000000000000000000008152600401808060200182810382526024815260200180610a456024913960400191505060405180910390fd5b6002544210156107a6576040517f08c379a00000000000000000000000000000000000000000000000000000000081526004018080602001828103825260178152602001807f506572696f64206e6f742079657420657870697265642e00000000000000000081525060200191505060405180910390fd5b600360009054906101000a900460ff161561080c576040517f08c379a0000000000000000000000000000000000000000000000000000000008152600401808060200182810382526022815260200180610a696022913960400191505060405180910390fd5b6001600360006101000a81548160ff0219169083151502179055507f0c70b1b05075f8da631c9716f10e3a21685ba4e7ab311477f8cc2bec6e44d57c600360029054906101000a900473ffffffffffffffffffffffffffffffffffffffff16600054600154604051808473ffffffffffffffffffffffffffffffffffffffff168152602001838152602001828152602001935050505060405180910390a1600360029054906101000a900473ffffffffffffffffffffffffffffffffffffffff1673ffffffffffffffffffffffffffffffffffffffff166108fc600054600154019081150290604051600060405180830381858888f19350505050158015610918573d6000803e3d6000fd5b50565b600560009054906101000a900473ffffffffffffffffffffffffffffffffffffffff1673ffffffffffffffffffffffffffffffffffffffff163373ffffffffffffffffffffffffffffffffffffffff16146109de576040517f08c379a000000000000000000000000000000000000000000000000000000000815260040180806020018281038252601d8152602001807f4f6e6c7920746865206f7261636c652063616e206b6e6f77207468697300000081525060200191505060405180910390fd5b80600360016101000a81548160ff02191690831515021790555050565b33600360026101000a81548173ffffffffffffffffffffffffffffffffffffffff021916908373ffffffffffffffffffffffffffffffffffffffff160217905550565b6002548156fe4f6e6c79207468652070726f766964657220697320616c6c6f77656420746f20656e642e656e64506f6c6963792068617320616c7265616479206265656e2063616c6c65642ea264697066735822122099ad5669c3188fbe92c6232eae5f24c94a689336d2578d4ab348a62ba68f0e2364736f6c63430007040033",
  "immutableReferences": {},
  "source": "pragma solidity ^0.7.4;\r\n\r\n\r\ncontract Client {\r\n\r\n    uint256 public policyAmount;\r\n    uint256 public policyPrice;\r\n    uint256 public policyEndTime;\r\n    bool ended;\r\n\r\n    bool houseBurnedDown = false;\r\n\r\n    address payable public insuranceProvider;\r\n    address payable public policyHolder;\r\n    address onChainOracle;\r\n\r\n\r\n    constructor(\r\n        uint256 _policyAmount,      // USD$\r\n        uint256 _policyPrice,       // USD$\r\n        uint256 _policyDuration    // UNIX time\r\n    ) {\r\n        policyAmount = _policyAmount;\r\n        policyPrice = _policyPrice;\r\n        policyEndTime = block.timestamp + _policyDuration;\r\n    }\r\n\r\n    event PolicyEnded(address insuranceProvider, uint256 policyAmount, uint256 payment);\r\n    event PolicyClaimed(address policyHolder, uint256 policyAmount, uint256 payment);\r\n\r\n    function initPolicy() public {\r\n        insuranceProvider = msg.sender;\r\n    }\r\n\r\n    function makePayment(uint256 amount) public {\r\n        require(amount == policyPrice);\r\n        policyHolder = msg.sender;\r\n    }\r\n\r\n    //call with offChain address and pass the oracle ether for gas\r\n    function setOracle(address _onChainOracle) public {\r\n        require(msg.sender == insuranceProvider, \"You may not choose the oracle.\");\r\n        onChainOracle = _onChainOracle;\r\n    }\r\n\r\n    function setHouseBurnedDown(bool _houseBurnedDown) public {\r\n        require( msg.sender == onChainOracle, \"Only the oracle can know this\");\r\n        houseBurnedDown = _houseBurnedDown;\r\n    }\r\n\r\n    function endPolicy() public {\r\n        require( msg.sender ==  insuranceProvider, \"Only the provider is allowed to end.\");\r\n        require(block.timestamp >= policyEndTime, \"Period not yet expired.\");\r\n        require(!ended, \"endPolicy has already been called.\");\r\n\r\n        ended = true;\r\n\r\n        emit PolicyEnded(insuranceProvider, policyAmount, policyPrice);\r\n\r\n        insuranceProvider.transfer(policyPrice + policyAmount);\r\n    }\r\n\r\n    function claimPolicy() public {\r\n        require(block.timestamp <= policyEndTime, \"Period expired.\");\r\n        require(!ended, \"Policy has already ended.\");\r\n        require(houseBurnedDown, \"House hasn't burned down\");\r\n\r\n        ended = true;\r\n        houseBurnedDown = true;\r\n\r\n        emit PolicyClaimed(policyHolder, policyAmount, policyPrice);\r\n\r\n        policyHolder.transfer(policyPrice + policyAmount);\r\n    }\r\n}\r\n",
  "sourcePath": "C:/Users/Wrath/Solidity/blockchain-stuff/block-client/contracts/Client.sol",
  "compiler": {
    "name": "solc",
    "version": "0.7.4+commit.3f05b770.Emscripten.clang"
  },
  "schemaVersion": "3.3.4",
  "updatedAt": "2021-03-09T20:27:31.114Z",
  "networkType": "ethereum",
  "devdoc": {
    "kind": "dev",
    "methods": {},
    "version": 1
  },
  "userdoc": {
    "kind": "user",
    "methods": {},
    "version": 1
  }
}