{
  "contractName": "Client",
  "abi": [
    {
      "inputs": [],
      "name": "initPolicy",
      "outputs": [],
      "stateMutability": "nonpayable",
      "type": "function"
    },
    {
      "inputs": [
        {
          "internalType": "uint256",
          "name": "amount",
          "type": "uint256"
        }
      ],
      "name": "makePayment",
      "outputs": [],
      "stateMutability": "nonpayable",
      "type": "function"
    },
    {
      "inputs": [
        {
          "internalType": "address",
          "name": "_onChainOracle",
          "type": "address"
        }
      ],
      "name": "setOracle",
      "outputs": [],
      "stateMutability": "nonpayable",
      "type": "function"
    },
    {
      "inputs": [
        {
          "internalType": "bool",
          "name": "_houseBurnedDown",
          "type": "bool"
        }
      ],
      "name": "setHouseBurnedDown",
      "outputs": [],
      "stateMutability": "nonpayable",
      "type": "function"
    },
    {
      "inputs": [],
      "name": "endPolicy",
      "outputs": [],
      "stateMutability": "nonpayable",
      "type": "function"
    },
    {
      "inputs": [],
      "name": "claimPolicy",
      "outputs": [],
      "stateMutability": "nonpayable",
      "type": "function"
    }
  ],
  "bytecode": "0x608060405234801561001057600080fd5b5061016c806100206000396000f3fe608060405234801561001057600080fd5b50600436106100625760003560e01c806314a20bea146100675780635114cb52146100715780637adbf9731461009f578063a559dd2c146100e3578063d7e471b1146100ed578063f9dec4361461011d575b600080fd5b61006f610127565b005b61009d6004803603602081101561008757600080fd5b8101908080359060200190929190505050610129565b005b6100e1600480360360208110156100b557600080fd5b81019080803573ffffffffffffffffffffffffffffffffffffffff16906020019092919050505061012c565b005b6100eb61012f565b005b61011b6004803603602081101561010357600080fd5b81019080803515159060200190929190505050610131565b005b610125610134565b005b565b50565b50565b565b50565b56fea26469706673582212201e3772c66142641eb2784d9fdc9c4c89e7293f37ff78fedaeed34a7fd34fd44764736f6c63430007040033",
  "immutableReferences": {},
  "source": "pragma solidity ^0.7.4;\r\n\r\n\r\ncontract Client {\r\n    //used for ABI interaction\r\n    function initPolicy() public {}\r\n    function makePayment(uint256 amount) public {}\r\n    function setOracle(address _onChainOracle) public {}\r\n    function setHouseBurnedDown(bool _houseBurnedDown) public {}\r\n    function endPolicy() public {}\r\n    function claimPolicy() public {}\r\n}\r\n\r\n\r\n\r\ncontract Oracle {\r\n\r\n    address clientAdr;         //Address of client contract\r\n    address offChainOracle; // GO request router address, MAY BE DIFFERENT DEPENDING ON BLOCKCHAIN. \r\n    Client client;\r\n\r\n    constructor(\r\n        address _clientAdr,\r\n        address _offChainOracle\r\n    ) {\r\n        offChainOracle = _offChainOracle;\r\n        client = Client(_clientAdr);\r\n        clientAdr = _clientAdr;\r\n    }\r\n \r\n    Request[] requests; // List of requests made to the contract. Needed for deterministic nature of blockchain.\r\n    uint currentId = 0; \r\n\r\n    struct Request {\r\n        uint id;        //request id\r\n        string key;     //key to fetch value from off-chain oracle\r\n        bool value;     //result from off-chain oracle\r\n        \r\n    }\r\n\r\n    event NewRequest (\r\n         uint id,\r\n         string key\r\n    );\r\n\r\n    event UpdatedRequest(\r\n        uint id,\r\n        string key,\r\n        bool value\r\n    );\r\n\r\n    function setHouseBurnedDown(bool _houseBurnedDown) public{\r\n        client.setHouseBurnedDown(_houseBurnedDown);\r\n    }\r\n\r\n\r\n    function createRequest(\r\n        string memory _key\r\n    ) public {\r\n        requests.push(Request(currentId, \"\", false));\r\n\r\n        emit NewRequest (\r\n            currentId,\r\n            _key\r\n        );\r\n\r\n        currentId++;\r\n    }\r\n\r\n    function updateRequest(\r\n        uint _id,\r\n        bool _value\r\n    ) public {\r\n    \r\n        Request storage currentRequest = requests[_id];\r\n\r\n        emit UpdatedRequest (\r\n              currentRequest.id,\r\n              currentRequest.key,\r\n              _value\r\n            );\r\n\r\n        if(_value) {\r\n            setHouseBurnedDown(_value);\r\n        }\r\n    }\r\n\r\n    \r\n}\r\n\r\n",
  "sourcePath": "C:/Users/Wrath/Solidity/blockchain-stuff/block-oracle/contracts/Oracle.sol",
  "compiler": {
    "name": "solc",
    "version": "0.7.4+commit.3f05b770.Emscripten.clang"
  },
  "schemaVersion": "3.3.4",
  "updatedAt": "2021-03-09T20:35:24.816Z",
  "devdoc": {
    "kind": "dev",
    "methods": {},
    "version": 1
  },
  "userdoc": {
    "kind": "user",
    "methods": {},
    "version": 1
  }
}